:100000000C9446000C9465000C9465000C946500FB
:100010000C9465000C9465000C9465000C946500CC
:100020000C9465000C9465000C9465000C946500BC
:100030000C9465000C9414020C9465000C946500FB
:100040000C9465000C9465000C9465000C9465009C
:100050000C9465000C9465000C9465000C9465008C
:100060000C9465000C9465000C9465000C9465007C
:100070000C9465000C9465000C9465000C9465006C
:100080000C9465000C9465000C94650011241FBE4F
:10009000CFEFD0E4DEBFCDBF11E0A0E0B1E0E8ECEF
:1000A000F5E000E00BBF02C007900D92AC32B10743
:1000B000D9F721E0ACE2B1E001C01D92AF36B20742
:1000C000E1F70E9474020C94E2020C940000CF93BA
:1000D000C82F8A3019F48DE00E9467008091C0001B
:1000E00085FFFCCFC093C60080E090E0CF910895DB
:1000F0008130910531F08230910571F0892B49F4FE
:1001000003C082E090E00AC010926E0182E090E0AD
:1001100005C080E090E002C081E090E0823091056F
:1001200024F08230910521F0089510926E01089517
:1001300028E020936E0108958130910551F01CF460
:10014000892B51F011C08230910589F0039749F055
:100150000BC082E090E00DC010926D0181E090E054
:1001600008C081E090E005C080E090E002C083E03C
:1001700090E08230910551F08330910559F0813043
:10018000910559F421E020936D01089522E0209318
:100190006D01089524E020936D010895813091054B
:1001A00051F08230910509F466C0892B09F06EC0C8
:1001B00081E090E0089520B130E0209530952370E3
:1001C0003327232B09F446C080B190E080959095A9
:1001D000837099270297D9F48091040190910501C9
:1001E000A0910601B091070182309105A105B105EA
:1001F00060F10197A109B109809304019093050171
:10020000A0930601B093070182E090E023C080B183
:1002100090E080959095837099270197C9F480911B
:10022000040190910501A0910601B091070101968A
:10023000A11DB11D8093040190930501A0930601B7
:10024000B093070182E090E005C082E090E002C038
:1002500082E090E040910401509105016091060117
:1002600070910701409357015093580160935901D1
:1002700070935A01089520B130E020953095237095
:100280003327232B29F481E090E0089580E090E06B
:1002900008958130910579F01CF4892B39F01AC04A
:1002A0008230910569F0039781F014C010923001FB
:1002B00081E090E017C0029915C082E090E012C082
:1002C000029B0BC081E090E00DC0029B09C081E061
:1002D00090E008C080E090E005C083E090E002C0BC
:1002E00082E090E08230910551F01CF4992354F0A3
:1002F00003C08330910531F410923001089520E15C
:10030000209330010895009721F08130910539F054
:1003100004C015B881E090E002C080E090E0813038
:10032000910549F430916E0120916D01232B30919C
:100330003001232B25B908958BE0809381008DE750
:1003400090E0909389008093880082E080936F0012
:10035000109285001092840080910001909101011B
:10036000A0910201B091030180932C0190932D0183
:10037000A0932E01B0932F018FB780688FBF08958F
:10038000109281000895EF92FF921F93CF93DF9315
:1003900010E041C0C12FD0E0FE01EE0FFF1FEC0FB7
:1003A000FD1FEE0FFF1FEE0FFF1FEF5CFE4F46819C
:1003B00057816085718582819381A481B5814817B9
:1003C00059076A077B0778F07F01DF010284F38514
:1003D000E02D8D919C910995F70191838083168280
:1003E000178210861186CE01880F991FFC01EC0F31
:1003F000FD1FEE0FFF1FEE0FFF1FEF5CFE4F86810C
:100400009781A085B1850196A11DB11D8683978333
:10041000A087B1871F5F153008F4BCCFDF91CF9163
:100420001F91FF90EF9008951F920F920FB60F92B9
:1004300011240BB60F922F933F934F935F936F93BB
:100440007F938F939F93AF93BF93EF93FF9380918D
:100450002C0190912D01A0912E01B0912F010197B7
:10046000A109B10980932C0190932D01A0932E0135
:10047000B0932F01892B8A2B8B2B91F40E94C301FF
:100480008091000190910101A0910201B0910301BE
:1004900080932C0190932D01A0932E01B0932F01F6
:1004A000FF91EF91BF91AF919F918F917F916F914C
:1004B0005F914F913F912F910F900BBE0F900FBE08
:1004C0000F901F9018956093000170930101809325
:1004D00002019093030160932C0170932D0180938E
:1004E0002E0190932F01089511B88FEF82B984B92E
:1004F00015B8E1E3F1E01182108288EE93E0A0E00C
:10050000B0E082839383A483B58386839783A08797
:10051000B18788E790E093878287158614868CE2FE
:1005200091E0A0E0B0E086879787A08BB18B828BAB
:10053000938BA48BB58B8CE990E0978B868B118E77
:10054000108E84E690E0A0E0B0E0828F938FA48FBD
:10055000B58F868F978FA0A3B1A38EEC90E093A365
:1005600082A315A214A28091040190910501A0918B
:100570000601B091070186A397A3A0A7B1A782A700
:1005800093A7A4A7B5A789E491E097A786A711AA86
:1005900010AA81E090E0A0E0B0E082AB93ABA4AB06
:1005A000B5AB86AB97ABA0AFB1AF83E891E093AFAB
:1005B00082AF61E070E080E090E00E9463020E9400
:0805C0009C01FFCFF894FFCF6E
:1005C800010000000500000000000002000000001B
:1005D80067000000000064000000010000002C011A
:0C05E8000000E803000001000000050016
:00000001FF
