:100000000C9446000C9465000C9465000C946500FB
:100010000C9465000C9465000C9465000C946500CC
:100020000C9465000C9465000C9465000C946500BC
:100030000C9465000C945D010C9465000C946500B3
:100040000C9465000C9465000C9465000C9465009C
:100050000C9465000C9465000C9465000C9465008C
:100060000C9465000C9465000C9465000C9465007C
:100070000C9465000C9465000C9465000C9465006C
:100080000C9465000C9465000C94650011241FBE4F
:10009000CFEFD0E4DEBFCDBF11E0A0E0B1E0EAE0F9
:1000A000F4E000E00BBF02C007900D92A432B1074C
:1000B000D9F721E0A4E2B1E001C01D92AE34B2074D
:1000C000E1F70E94BD010C9403020C940000CF9351
:1000D000C82F8A3019F48DE00E9467008091C0001B
:1000E00085FFFCCFC093C60080E090E0CF910895DB
:1000F0008130910531F08230910571F0892B49F4FE
:1001000003C082E090E00AC010924D0182E090E0CE
:1001100005C080E090E002C081E090E0823091056F
:1001200024F08230910521F0089510924D01089538
:1001300028E020934D0108958130910551F01CF481
:10014000892B51F011C08230910589F0039749F055
:100150000BC082E090E00DC010924C0181E090E075
:1001600008C081E090E005C080E090E002C083E03C
:1001700090E08230910551F08330910559F0813043
:10018000910559F421E020934C01089522E0209339
:100190004C01089524E020934C010895009721F02C
:1001A0008130910539F004C015B881E090E002C0BB
:1001B00080E090E08130910531F430914D01209143
:1001C0004C01232B25B908958BE0809381008DE7A6
:1001D00090E0909389008093880082E080936F0084
:1001E000109285001092840080910001909101018D
:1001F000A0910201B0910301809324019093250105
:10020000A0932601B09327018FB780688FBF089510
:10021000109281000895EF92FF921F93CF93DF9386
:1002200010E042C0C12FD0E0FE01EE0FFF1FEC0F27
:10023000FD1FEE0FFF1FEE0FFF1FE85DFE4F468113
:1002400057816085718582819381A481B58148172A
:1002500059076A077B0778F07F01DF010284F38585
:10026000E02D8D919C910995F701918380831682F1
:10027000178210861186CE01880F991FFC01EC0FA2
:10028000FD1FEE0FFF1FEE0FFF1FE85DFE4F868183
:100290009781A085B1858C599F4FAF4FBF4F868303
:1002A0009783A087B1871F5F133008F4BBCFDF911E
:1002B000CF911F91FF90EF9008951F920F920FB66C
:1002C0000F9211240BB60F922F933F934F935F938E
:1002D0006F937F938F939F93AF93BF93EF93FF930E
:1002E0008091240190912501A0912601B0912701D0
:1002F0000197A109B1098093240190932501A0934E
:100300002601B0932701892B8A2B8B2B91F40E9415
:100310000B018091000190910101A0910201B09127
:1003200003018093240190932501A0932601B093AB
:100330002701FF91EF91BF91AF919F918F917F9195
:100340006F915F914F913F912F910F900BBE0F9046
:100350000FBE0F901F9018956093000170930101DC
:10036000809302019093030160932401709325010F
:100370008093260190932701089511B88FEF82B9D9
:1003800084B915B8E8E2F1E01182108288EE93E0BA
:10039000A0E0B0E082839383A483B58386839783B0
:1003A000A087B18788E790E09387828715861486B7
:1003B0008CE291E0A0E0B0E086879787A08BB18BBC
:1003C000828B938BA48BB58B8CE990E0978B868B7B
:1003D000118E108E84E690E0A0E0B0E0828F938FC3
:1003E000A48FB58F868F978FA0A3B1A38EEC90E0DA
:1003F00093A382A364E670E080E090E00E94AC01E9
:0A0400000E94E400FFCFF894FFCF44
:10040A000100000000000002000000006700000078
:10041A000000640000002C010000E80300006400F2
:04042A0000000300CB
:00000001FF
