:100000000C9446000C9465000C9465000C946500FB
:100010000C9465000C9465000C9465000C946500CC
:100020000C9465000C9465000C9465000C946500BC
:100030000C9465000C9499010C9465000C94650077
:100040000C9465000C9465000C9465000C9465009C
:100050000C9465000C9465000C9465000C9465008C
:100060000C9465000C9465000C9465000C9465007C
:100070000C9465000C9465000C9465000C9465006C
:100080000C9465000C9465000C94650011241FBE4F
:10009000CFEFD0E4DEBFCDBF11E0A0E0B1E0EEE9EC
:1000A000F4E000E00BBF02C007900D92A832B10748
:1000B000D9F721E0A8E2B1E001C01D92AF35B20747
:1000C000E1F70E94F9010C944D020C940000CF93CB
:1000D000C82F8A3019F48DE00E9467008091C0001B
:1000E00085FFFCCFC093C60080E090E0CF910895DB
:1000F0008130910531F08230910571F0892B49F4FE
:1001000003C082E090E00AC010925E0182E090E0BD
:1001100005C080E090E002C081E090E0823091056F
:1001200024F08230910521F0089510925E01089527
:1001300028E020935E0108958130910551F01CF470
:10014000892B51F011C08230910589F0039749F055
:100150000BC082E090E00DC010925D0181E090E064
:1001600008C081E090E005C080E090E002C083E03C
:1001700090E08230910551F08330910559F0813043
:10018000910559F421E020935D01089522E0209328
:100190005D01089524E020935D010895813091056B
:1001A00079F01CF4892B39F01AC08230910569F07E
:1001B000039781F014C010922C0181E090E017C0E9
:1001C000029915C082E090E012C0029B0BC081E052
:1001D00090E00DC0029B09C081E090E008C080E083
:1001E00090E005C083E090E002C082E090E08230C1
:1001F000910551F01CF4992354F003C0833091050C
:1002000031F410922C01089520E120932C010895DF
:10021000009721F08130910539F004C015B881E0D4
:1002200090E002C080E090E08130910549F4309187
:100230005E0120915D01232B30912C01232B25B9E8
:1002400008958BE0809381008DE790E09093890082
:100250008093880082E080936F0010928500109256
:1002600084008091000190910101A0910201B09160
:1002700003018093280190932901A0932A01B09350
:100280002B018FB780688FBF089510928100089569
:10029000EF92FF921F93CF93DF9310E041C0C12FE5
:1002A000D0E0FE01EE0FFF1FEC0FFD1FEE0FFF1F52
:1002B000EE0FFF1FE35DFE4F46815781608571851C
:1002C00082819381A481B581481759076A077B070A
:1002D00078F07F01DF010284F385E02D8D919C9100
:1002E0000995F70191838083168217821086118603
:1002F000CE01880F991FFC01EC0FFD1FEE0FFF1FB1
:10030000EE0FFF1FE35DFE4F86819781A085B185CB
:100310000296A11DB11D86839783A087B1871F5FB9
:10032000143008F4BCCFDF91CF911F91FF90EF9074
:1003300008951F920F920FB60F9211240BB60F92D1
:100340002F933F934F935F936F937F938F939F93DD
:10035000AF93BF93EF93FF93809128019091290170
:10036000A0912A01B0912B010197A109B1098093B5
:10037000280190932901A0932A01B0932B01892B86
:100380008A2B8B2B91F40E9448018091000190915F
:100390000101A0910201B091030180932801909383
:1003A0002901A0932A01B0932B01FF91EF91BF91F6
:1003B000AF919F918F917F916F915F914F913F91FD
:1003C0002F910F900BBE0F900FBE0F901F9018959E
:1003D00060930001709301018093020190930301E7
:1003E000609328017093290180932A0190932B0137
:1003F000089511B88FEF82B984B915B8EDE2F1E034
:100400001182108288EE93E0A0E0B0E082839383B3
:10041000A483B58386839783A087B18788E790E01C
:1004200093878287158614868CE291E0A0E0B0E085
:1004300086879787A08BB18B828B938BA48BB58B90
:100440008CE990E0978B868B118E108E82E090E085
:10045000A0E0B0E0828F938FA48FB58F868F978FA7
:10046000A0A3B1A32EEC30E033A322A315A214A2C3
:1004700086A397A3A0A7B1A782A793A7A4A7B5A770
:1004800088E091E097A786A762E070E080E090E0C6
:0E0490000E94E8010E942101FFCFF894FFCFE7
:10049E0001000000000000020000000067000000E4
:1004AE00000002000000020000002C010000E80322
:0804BE00000002000000040030
:00000001FF
